{
  "contractName": "Tender",
  "abi": [
    {
      "constant": true,
      "inputs": [],
      "name": "tender_type",
      "outputs": [
        {
          "name": "",
          "type": "uint8"
        }
      ],
      "payable": false,
      "stateMutability": "view",
      "type": "function"
    },
    {
      "constant": true,
      "inputs": [],
      "name": "sealer_lock",
      "outputs": [
        {
          "name": "",
          "type": "bytes"
        }
      ],
      "payable": false,
      "stateMutability": "view",
      "type": "function"
    },
    {
      "constant": false,
      "inputs": [
        {
          "name": "_unsealer_key",
          "type": "bytes"
        }
      ],
      "name": "share_key_with_unsealer",
      "outputs": [
        {
          "name": "",
          "type": "bool"
        }
      ],
      "payable": false,
      "stateMutability": "nonpayable",
      "type": "function"
    },
    {
      "constant": false,
      "inputs": [
        {
          "name": "_offer_owner",
          "type": "address"
        },
        {
          "name": "_selector_unlocker_key",
          "type": "bytes"
        }
      ],
      "name": "select_offer",
      "outputs": [
        {
          "name": "",
          "type": "bool"
        }
      ],
      "payable": false,
      "stateMutability": "nonpayable",
      "type": "function"
    },
    {
      "constant": true,
      "inputs": [],
      "name": "sealed_count",
      "outputs": [
        {
          "name": "",
          "type": "uint32"
        }
      ],
      "payable": false,
      "stateMutability": "view",
      "type": "function"
    },
    {
      "constant": true,
      "inputs": [],
      "name": "offers_count",
      "outputs": [
        {
          "name": "",
          "type": "uint32"
        }
      ],
      "payable": false,
      "stateMutability": "view",
      "type": "function"
    },
    {
      "constant": true,
      "inputs": [],
      "name": "tender_scope",
      "outputs": [
        {
          "name": "",
          "type": "uint8"
        }
      ],
      "payable": false,
      "stateMutability": "view",
      "type": "function"
    },
    {
      "constant": true,
      "inputs": [],
      "name": "fund_cap",
      "outputs": [
        {
          "name": "",
          "type": "uint256"
        }
      ],
      "payable": false,
      "stateMutability": "view",
      "type": "function"
    },
    {
      "constant": true,
      "inputs": [],
      "name": "isSelected",
      "outputs": [
        {
          "name": "",
          "type": "bool"
        }
      ],
      "payable": false,
      "stateMutability": "view",
      "type": "function"
    },
    {
      "constant": true,
      "inputs": [],
      "name": "owner",
      "outputs": [
        {
          "name": "",
          "type": "address"
        }
      ],
      "payable": false,
      "stateMutability": "view",
      "type": "function"
    },
    {
      "constant": false,
      "inputs": [
        {
          "name": "_offer_hash",
          "type": "bytes32"
        },
        {
          "name": "_sealed_offer",
          "type": "bytes"
        }
      ],
      "name": "submit_sealed_offer",
      "outputs": [
        {
          "name": "",
          "type": "bool"
        }
      ],
      "payable": false,
      "stateMutability": "nonpayable",
      "type": "function"
    },
    {
      "constant": true,
      "inputs": [],
      "name": "sealing_due",
      "outputs": [
        {
          "name": "",
          "type": "uint256"
        }
      ],
      "payable": false,
      "stateMutability": "view",
      "type": "function"
    },
    {
      "constant": true,
      "inputs": [],
      "name": "submissions_due",
      "outputs": [
        {
          "name": "",
          "type": "uint256"
        }
      ],
      "payable": false,
      "stateMutability": "view",
      "type": "function"
    },
    {
      "constant": true,
      "inputs": [],
      "name": "selector_unlocker_key",
      "outputs": [
        {
          "name": "",
          "type": "bytes"
        }
      ],
      "payable": false,
      "stateMutability": "view",
      "type": "function"
    },
    {
      "constant": true,
      "inputs": [],
      "name": "unsealer",
      "outputs": [
        {
          "name": "",
          "type": "address"
        }
      ],
      "payable": false,
      "stateMutability": "view",
      "type": "function"
    },
    {
      "constant": true,
      "inputs": [],
      "name": "tender_desc",
      "outputs": [
        {
          "name": "",
          "type": "string"
        }
      ],
      "payable": false,
      "stateMutability": "view",
      "type": "function"
    },
    {
      "constant": false,
      "inputs": [
        {
          "name": "_offer_owner",
          "type": "address"
        },
        {
          "name": "_selector_key",
          "type": "bytes"
        },
        {
          "name": "_unseal_status",
          "type": "uint8"
        }
      ],
      "name": "unseal_offer",
      "outputs": [
        {
          "name": "",
          "type": "bool"
        }
      ],
      "payable": false,
      "stateMutability": "nonpayable",
      "type": "function"
    },
    {
      "constant": true,
      "inputs": [],
      "name": "selector",
      "outputs": [
        {
          "name": "",
          "type": "address"
        }
      ],
      "payable": false,
      "stateMutability": "view",
      "type": "function"
    },
    {
      "constant": true,
      "inputs": [],
      "name": "unsealed_count",
      "outputs": [
        {
          "name": "",
          "type": "uint32"
        }
      ],
      "payable": false,
      "stateMutability": "view",
      "type": "function"
    },
    {
      "constant": true,
      "inputs": [],
      "name": "selected_offer",
      "outputs": [
        {
          "name": "",
          "type": "address"
        }
      ],
      "payable": false,
      "stateMutability": "view",
      "type": "function"
    },
    {
      "inputs": [
        {
          "name": "_tender_desc",
          "type": "string"
        },
        {
          "name": "_submissions_due",
          "type": "uint256"
        },
        {
          "name": "_sealing_due",
          "type": "uint256"
        },
        {
          "name": "_unsealer",
          "type": "address"
        },
        {
          "name": "_selector",
          "type": "address"
        },
        {
          "name": "_tender_type",
          "type": "uint8"
        },
        {
          "name": "_tender_scope",
          "type": "uint8"
        },
        {
          "name": "_fund_cap",
          "type": "uint256"
        }
      ],
      "payable": false,
      "stateMutability": "nonpayable",
      "type": "constructor"
    },
    {
      "anonymous": false,
      "inputs": [
        {
          "indexed": false,
          "name": "owner",
          "type": "address"
        },
        {
          "indexed": false,
          "name": "_offer_hash",
          "type": "bytes32"
        },
        {
          "indexed": false,
          "name": "_sealed_offer",
          "type": "bytes"
        }
      ],
      "name": "NewOffer",
      "type": "event"
    },
    {
      "anonymous": false,
      "inputs": [
        {
          "indexed": false,
          "name": "owner",
          "type": "address"
        },
        {
          "indexed": false,
          "name": "_unsealer_key",
          "type": "bytes"
        }
      ],
      "name": "UnsealerKeyShared",
      "type": "event"
    },
    {
      "anonymous": false,
      "inputs": [
        {
          "indexed": false,
          "name": "owner",
          "type": "address"
        },
        {
          "indexed": false,
          "name": "selector_key",
          "type": "bytes"
        },
        {
          "indexed": false,
          "name": "unseal_status",
          "type": "uint8"
        }
      ],
      "name": "OfferUnsealed",
      "type": "event"
    },
    {
      "anonymous": false,
      "inputs": [
        {
          "indexed": false,
          "name": "owner",
          "type": "address"
        },
        {
          "indexed": false,
          "name": "selector_unlocker_key",
          "type": "bytes"
        }
      ],
      "name": "OfferSelected",
      "type": "event"
    }
  ],
  "bytecode": "0x606060405234156200001057600080fd5b604051620019f8380380620019f88339810160405280805182019190602001805190602001909190805190602001909190805190602001909190805190602001909190805190602001909190805190602001909190805190602001909190505087600390805190602001906200008892919062000267565b50866004819055508560058190555084600660006101000a81548173ffffffffffffffffffffffffffffffffffffffff021916908373ffffffffffffffffffffffffffffffffffffffff16021790555083600760006101000a81548173ffffffffffffffffffffffffffffffffffffffff021916908373ffffffffffffffffffffffffffffffffffffffff16021790555082600760146101000a81548160ff021916908360ff16021790555081600760156101000a81548160ff021916908360ff16021790555080600881905550336000806101000a81548173ffffffffffffffffffffffffffffffffffffffff021916908373ffffffffffffffffffffffffffffffffffffffff1602179055506000600260006101000a81548163ffffffff021916908363ffffffff1602179055506000600260046101000a81548163ffffffff021916908363ffffffff1602179055506000600260086101000a81548163ffffffff021916908363ffffffff1602179055506000600a60016101000a81548173ffffffffffffffffffffffffffffffffffffffff021916908373ffffffffffffffffffffffffffffffffffffffff1602179055506000600a60006101000a81548160ff021916908315150217905550505050505050505062000316565b828054600181600116156101000203166002900490600052602060002090601f016020900481019282601f10620002aa57805160ff1916838001178555620002db565b82800160010185558215620002db579182015b82811115620002da578251825591602001919060010190620002bd565b5b509050620002ea9190620002ee565b5090565b6200031391905b808211156200030f576000816000905550600101620002f5565b5090565b90565b6116d280620003266000396000f300606060405260043610610112576000357c0100000000000000000000000000000000000000000000000000000000900463ffffffff1680631136de4414610117578063291e6080146101465780632eb530ea146101d4578063391a57f91461024957806351819d64146102dd578063559a9f8d146103125780636599c8d2146103475780636a3c2f0114610376578063796bbbeb1461039f5780638da5cb5b146103cc578063907a404514610421578063a54f19ae146104a3578063a79dfde7146104cc578063aeebc5a5146104f5578063b1ae312c14610583578063d9b6f2a6146105d8578063e84db85714610666578063ea3d508a14610706578063fa2b06321461075b578063fce86d6c14610790575b600080fd5b341561012257600080fd5b61012a6107e5565b604051808260ff1660ff16815260200191505060405180910390f35b341561015157600080fd5b6101596107f8565b6040518080602001828103825283818151815260200191508051906020019080838360005b8381101561019957808201518184015260208101905061017e565b50505050905090810190601f1680156101c65780820380516001836020036101000a031916815260200191505b509250505060405180910390f35b34156101df57600080fd5b61022f600480803590602001908201803590602001908080601f01602080910402602001604051908101604052809392919081815260200183838082843782019150505050505091905050610896565b604051808215151515815260200191505060405180910390f35b341561025457600080fd5b6102c3600480803573ffffffffffffffffffffffffffffffffffffffff1690602001909190803590602001908201803590602001908080601f01602080910402602001604051908101604052809392919081815260200183838082843782019150505050505091905050610b11565b604051808215151515815260200191505060405180910390f35b34156102e857600080fd5b6102f0610d8a565b604051808263ffffffff1663ffffffff16815260200191505060405180910390f35b341561031d57600080fd5b610325610da0565b604051808263ffffffff1663ffffffff16815260200191505060405180910390f35b341561035257600080fd5b61035a610db6565b604051808260ff1660ff16815260200191505060405180910390f35b341561038157600080fd5b610389610dc9565b6040518082815260200191505060405180910390f35b34156103aa57600080fd5b6103b2610dcf565b604051808215151515815260200191505060405180910390f35b34156103d757600080fd5b6103df610de2565b604051808273ffffffffffffffffffffffffffffffffffffffff1673ffffffffffffffffffffffffffffffffffffffff16815260200191505060405180910390f35b341561042c57600080fd5b61048960048080356000191690602001909190803590602001908201803590602001908080601f01602080910402602001604051908101604052809392919081815260200183838082843782019150505050505091905050610e07565b604051808215151515815260200191505060405180910390f35b34156104ae57600080fd5b6104b661110a565b6040518082815260200191505060405180910390f35b34156104d757600080fd5b6104df611110565b6040518082815260200191505060405180910390f35b341561050057600080fd5b610508611116565b6040518080602001828103825283818151815260200191508051906020019080838360005b8381101561054857808201518184015260208101905061052d565b50505050905090810190601f1680156105755780820380516001836020036101000a031916815260200191505b509250505060405180910390f35b341561058e57600080fd5b6105966111b4565b604051808273ffffffffffffffffffffffffffffffffffffffff1673ffffffffffffffffffffffffffffffffffffffff16815260200191505060405180910390f35b34156105e357600080fd5b6105eb6111da565b6040518080602001828103825283818151815260200191508051906020019080838360005b8381101561062b578082015181840152602081019050610610565b50505050905090810190601f1680156106585780820380516001836020036101000a031916815260200191505b509250505060405180910390f35b341561067157600080fd5b6106ec600480803573ffffffffffffffffffffffffffffffffffffffff1690602001909190803590602001908201803590602001908080601f0160208091040260200160405190810160405280939291908181526020018383808284378201915050505050509190803560ff16906020019091905050611278565b604051808215151515815260200191505060405180910390f35b341561071157600080fd5b61071961159f565b604051808273ffffffffffffffffffffffffffffffffffffffff1673ffffffffffffffffffffffffffffffffffffffff16815260200191505060405180910390f35b341561076657600080fd5b61076e6115c5565b604051808263ffffffff1663ffffffff16815260200191505060405180910390f35b341561079b57600080fd5b6107a36115db565b604051808273ffffffffffffffffffffffffffffffffffffffff1673ffffffffffffffffffffffffffffffffffffffff16815260200191505060405180910390f35b600760149054906101000a900460ff1681565b60098054600181600116156101000203166002900480601f01602080910402602001604051908101604052809291908181526020018280546001816001161561010002031660029004801561088e5780601f106108635761010080835404028352916020019161088e565b820191906000526020600020905b81548152906001019060200180831161087157829003601f168201915b505050505081565b6000600454421115156108a857600080fd5b60055442111515156108b957600080fd5b6000600160003373ffffffffffffffffffffffffffffffffffffffff1673ffffffffffffffffffffffffffffffffffffffff16815260200190815260200160002060000160009054906101000a900473ffffffffffffffffffffffffffffffffffffffff1673ffffffffffffffffffffffffffffffffffffffff161415151561094157600080fd5b6000600160003373ffffffffffffffffffffffffffffffffffffffff1673ffffffffffffffffffffffffffffffffffffffff1681526020019081526020016000206003018054600181600116156101000203166002900490501415156109a657600080fd5b81600160003373ffffffffffffffffffffffffffffffffffffffff1673ffffffffffffffffffffffffffffffffffffffff16815260200190815260200160002060030190805190602001906109fc929190611601565b506002600481819054906101000a900463ffffffff168092919060010191906101000a81548163ffffffff021916908363ffffffff160217905550507ff88f70a94c83c868de9e77d33abbb15750a7a746c6d9d639f77f05a1943a2f493383604051808373ffffffffffffffffffffffffffffffffffffffff1673ffffffffffffffffffffffffffffffffffffffff16815260200180602001828103825283818151815260200191508051906020019080838360005b83811015610acd578082015181840152602081019050610ab2565b50505050905090810190601f168015610afa5780820380516001836020036101000a031916815260200191505b50935050505060405180910390a160019050919050565b600060055442111515610b2357600080fd5b600a60009054906101000a900460ff16151515610b3f57600080fd5b600760009054906101000a900473ffffffffffffffffffffffffffffffffffffffff1673ffffffffffffffffffffffffffffffffffffffff163373ffffffffffffffffffffffffffffffffffffffff16141515610b9b57600080fd5b600260089054906101000a900463ffffffff1663ffffffff16600260049054906101000a900463ffffffff1663ffffffff16141515610bd957600080fd5b600260ff16600160008573ffffffffffffffffffffffffffffffffffffffff1673ffffffffffffffffffffffffffffffffffffffff16815260200190815260200160002060040160009054906101000a900460ff1660ff16141515610c3d57600080fd5b82600a60016101000a81548173ffffffffffffffffffffffffffffffffffffffff021916908373ffffffffffffffffffffffffffffffffffffffff1602179055506001600a60006101000a81548160ff02191690831515021790555081600b9080519060200190610caf929190611601565b507fc54ebfcedfe4a5c568f5e2d28f778db0e4ad61c6b8adbc786d7db9096a002c398383604051808373ffffffffffffffffffffffffffffffffffffffff1673ffffffffffffffffffffffffffffffffffffffff16815260200180602001828103825283818151815260200191508051906020019080838360005b83811015610d45578082015181840152602081019050610d2a565b50505050905090810190601f168015610d725780820380516001836020036101000a031916815260200191505b50935050505060405180910390a16001905092915050565b600260049054906101000a900463ffffffff1681565b600260009054906101000a900463ffffffff1681565b600760159054906101000a900460ff1681565b60085481565b600a60009054906101000a900460ff1681565b6000809054906101000a900473ffffffffffffffffffffffffffffffffffffffff1681565b60006004544211151515610e1a57600080fd5b6000600160003373ffffffffffffffffffffffffffffffffffffffff1673ffffffffffffffffffffffffffffffffffffffff16815260200190815260200160002060000160009054906101000a900473ffffffffffffffffffffffffffffffffffffffff1673ffffffffffffffffffffffffffffffffffffffff16141515610ea157600080fd5b82600160003373ffffffffffffffffffffffffffffffffffffffff1673ffffffffffffffffffffffffffffffffffffffff168152602001908152602001600020600101816000191690555081600160003373ffffffffffffffffffffffffffffffffffffffff1673ffffffffffffffffffffffffffffffffffffffff1681526020019081526020016000206002019080519060200190610f42929190611601565b5033600160003373ffffffffffffffffffffffffffffffffffffffff1673ffffffffffffffffffffffffffffffffffffffff16815260200190815260200160002060000160006101000a81548173ffffffffffffffffffffffffffffffffffffffff021916908373ffffffffffffffffffffffffffffffffffffffff1602179055506002600081819054906101000a900463ffffffff168092919060010191906101000a81548163ffffffff021916908363ffffffff160217905550507f9bbef76d56de2b53241d0250bd9b955e1108ad80d0fcaa6c7277cf0e9bb832336000809054906101000a900473ffffffffffffffffffffffffffffffffffffffff168484604051808473ffffffffffffffffffffffffffffffffffffffff1673ffffffffffffffffffffffffffffffffffffffff168152602001836000191660001916815260200180602001828103825283818151815260200191508051906020019080838360005b838110156110c45780820151818401526020810190506110a9565b50505050905090810190601f1680156110f15780820380516001836020036101000a031916815260200191505b5094505050505060405180910390a16001905092915050565b60055481565b60045481565b600b8054600181600116156101000203166002900480601f0160208091040260200160405190810160405280929190818152602001828054600181600116156101000203166002900480156111ac5780601f10611181576101008083540402835291602001916111ac565b820191906000526020600020905b81548152906001019060200180831161118f57829003601f168201915b505050505081565b600660009054906101000a900473ffffffffffffffffffffffffffffffffffffffff1681565b60038054600181600116156101000203166002900480601f0160208091040260200160405190810160405280929190818152602001828054600181600116156101000203166002900480156112705780601f1061124557610100808354040283529160200191611270565b820191906000526020600020905b81548152906001019060200180831161125357829003601f168201915b505050505081565b60006004544211151561128a57600080fd5b600660009054906101000a900473ffffffffffffffffffffffffffffffffffffffff1673ffffffffffffffffffffffffffffffffffffffff163373ffffffffffffffffffffffffffffffffffffffff161415156112e657600080fd5b6000600102600160008673ffffffffffffffffffffffffffffffffffffffff1673ffffffffffffffffffffffffffffffffffffffff16815260200190815260200160002060010154600019161415151561133f57600080fd5b600060ff16600160008673ffffffffffffffffffffffffffffffffffffffff1673ffffffffffffffffffffffffffffffffffffffff16815260200190815260200160002060040160009054906101000a900460ff1660ff161415156113a357600080fd5b600160ff168260ff1614806113be5750600260ff168260ff16145b15156113c957600080fd5b81600160008673ffffffffffffffffffffffffffffffffffffffff1673ffffffffffffffffffffffffffffffffffffffff16815260200190815260200160002060040160006101000a81548160ff021916908360ff16021790555082600160008673ffffffffffffffffffffffffffffffffffffffff1673ffffffffffffffffffffffffffffffffffffffff168152602001908152602001600020600501908051906020019061147a929190611601565b506002600881819054906101000a900463ffffffff168092919060010191906101000a81548163ffffffff021916908363ffffffff160217905550507fe07415383a76b404d3715f0885d68d54a8fb9c9d13a3db2bc8fde815ece31315848484604051808473ffffffffffffffffffffffffffffffffffffffff1673ffffffffffffffffffffffffffffffffffffffff168152602001806020018360ff1660ff168152602001828103825284818151815260200191508051906020019080838360005b8381101561155857808201518184015260208101905061153d565b50505050905090810190601f1680156115855780820380516001836020036101000a031916815260200191505b5094505050505060405180910390a1600190509392505050565b600760009054906101000a900473ffffffffffffffffffffffffffffffffffffffff1681565b600260089054906101000a900463ffffffff1681565b600a60019054906101000a900473ffffffffffffffffffffffffffffffffffffffff1681565b828054600181600116156101000203166002900490600052602060002090601f016020900481019282601f1061164257805160ff1916838001178555611670565b82800160010185558215611670579182015b8281111561166f578251825591602001919060010190611654565b5b50905061167d9190611681565b5090565b6116a391905b8082111561169f576000816000905550600101611687565b5090565b905600a165627a7a72305820af1cdecb2b46071e953f29db784e322b95c5d851456208d745128303054d60a10029",
  "source": "pragma solidity ^0.4.18;\n\ncontract Tender {\n\n    struct Offer {\n        // submit sealed offer\n        address owner;\n        bytes32 offer_hash;\n        bytes   sealed_offer;\n        bytes   unsealer_key;\n        uint8   unseal_status;\n        bytes   selector_key;\n    }\n\n    event NewOffer(address owner, bytes32 _offer_hash, bytes _sealed_offer);\n    event UnsealerKeyShared(address owner, bytes _unsealer_key);\n    event OfferUnsealed(address owner, bytes selector_key, uint8 unseal_status);\n    event OfferSelected(address owner, bytes selector_unlocker_key);\n\n    uint8 private constant AWAITING_UNSEALER = 0;\n    uint8 private constant UNSEALER_REJECTED = 1;\n    uint8 private constant UNSEALED = 2;\n\n    // smart contruct info\n    address public owner;\n    mapping(address => Offer)   offers;\n    /* mapping(address => uint32) owners; */\n    uint32  public offers_count;\n    uint32  public sealed_count;\n    uint32  public unsealed_count;\n\n    // Tender creation pubic info\n    string  public tender_desc;\n    uint256 public submissions_due;\n    uint256 public sealing_due;\n    address public unsealer;\n    address public selector;\n    uint8   public tender_type;\n    uint8   public tender_scope;\n    uint    public fund_cap;\n    bytes   public sealer_lock;\n\n    // Tender state public info\n    bool    public isSelected;\n    address public selected_offer;\n    bytes   public selector_unlocker_key;\n\n    function Tender(\n        string  _tender_desc,\n        uint256 _submissions_due,\n        uint256 _sealing_due,\n        address _unsealer,\n        address _selector,\n        uint8   _tender_type,\n        uint8   _tender_scope,\n        uint    _fund_cap\n    ) public {\n        // constructor\n        tender_desc       = _tender_desc;\n        submissions_due   = _submissions_due;\n        sealing_due       = _sealing_due;\n        unsealer          = _unsealer;\n        selector          = _selector;\n        tender_type       = _tender_type;\n        tender_scope      = _tender_scope;\n        fund_cap          = _fund_cap;\n\n        owner             = msg.sender;\n        offers_count      = 0;\n        sealed_count      = 0;\n        unsealed_count    = 0;\n        selected_offer    = 0x0;\n        isSelected        = false;\n    }\n\n    // submit undisclosed offer by submitting the sha256 of the offer\n    function submit_sealed_offer(bytes32 _offer_hash, bytes _sealed_offer) public returns (bool) {\n        require(now <= submissions_due);\n        require(offers[msg.sender].owner == 0x0);\n        offers[msg.sender].offer_hash = _offer_hash;\n        offers[msg.sender].sealed_offer = _sealed_offer;\n        offers[msg.sender].owner = msg.sender;\n        offers_count++;\n        NewOffer(owner, _offer_hash, _sealed_offer);\n        return true;\n    }\n\n    // allow unsealer to read the offer\n    function share_key_with_unsealer(bytes _unsealer_key) public returns (bool) {\n        require(now > submissions_due);                       // submission period is over\n        require(now <= sealing_due);                          // unsealing period is not over\n        require(offers[msg.sender].owner != 0x0);             // offer exists\n        require(offers[msg.sender].unsealer_key.length == 0); // key not already submitted\n        offers[msg.sender].unsealer_key = _unsealer_key;\n        sealed_count++;\n        UnsealerKeyShared(msg.sender, _unsealer_key);\n        return true;\n    }\n\n    // unsealer accepts or rejects offers and allows selector to read the offer\n    function unseal_offer(address _offer_owner, bytes _selector_key, uint8 _unseal_status) public returns(bool) {\n        require(now > submissions_due);                   // submission period is over\n        require(msg.sender == unsealer);                  // sender is unsealer\n        require(offers[_offer_owner].offer_hash != 0x0);  // offer exists\n        require(offers[_offer_owner].unseal_status == AWAITING_UNSEALER);\n        require(_unseal_status == UNSEALER_REJECTED || _unseal_status == UNSEALED);\n        offers[_offer_owner].unseal_status = _unseal_status;\n        offers[_offer_owner].selector_key = _selector_key;\n        unsealed_count++;\n        OfferUnsealed(_offer_owner, _selector_key, _unseal_status);\n        return true;\n    }\n\n    // selector selects the winning offer\n    function select_offer(address _offer_owner, bytes _selector_unlocker_key) public returns(bool) {\n        require(now > sealing_due);\n        require(!isSelected);\n        require(msg.sender == selector);                          // must be selector to select\n        require(sealed_count == unsealed_count);                  // all offers sealed has been unsealed\n        require(offers[_offer_owner].unseal_status == UNSEALED);  // offer exists and is valid\n        selected_offer = _offer_owner;\n        isSelected = true;\n        selector_unlocker_key = _selector_unlocker_key;\n        OfferSelected(_offer_owner, _selector_unlocker_key);\n        return true;\n    }\n\n}\n",
  "sourcePath": "/Users/alex/Hackathons/cytasmartcity18/0xgg/smartcontract/contracts/Tender.sol",
  "compiler": {
    "name": "solc",
    "version": "0.4.18+commit.9cf6e910.Emscripten.clang"
  },
  "schemaVersion": "1.0.1",
  "updatedAt": "2018-02-24T18:26:20.697Z"
}