{
  "contractName": "TenderFactory",
  "abi": [
    {
      "constant": true,
      "inputs": [
        {
          "name": "_address",
          "type": "address"
        }
      ],
      "name": "getCreated",
      "outputs": [
        {
          "name": "",
          "type": "address[]"
        }
      ],
      "payable": false,
      "stateMutability": "view",
      "type": "function"
    },
    {
      "constant": true,
      "inputs": [
        {
          "name": "",
          "type": "address"
        },
        {
          "name": "",
          "type": "uint256"
        }
      ],
      "name": "created",
      "outputs": [
        {
          "name": "",
          "type": "address"
        }
      ],
      "payable": false,
      "stateMutability": "view",
      "type": "function"
    },
    {
      "constant": false,
      "inputs": [
        {
          "name": "_tender_desc",
          "type": "string"
        },
        {
          "name": "_submissions_due",
          "type": "uint256"
        },
        {
          "name": "_sealing_due",
          "type": "uint256"
        },
        {
          "name": "_unsealer",
          "type": "address"
        },
        {
          "name": "_selector",
          "type": "address"
        },
        {
          "name": "_tender_type",
          "type": "uint8"
        },
        {
          "name": "_tender_scope",
          "type": "uint8"
        },
        {
          "name": "_fund_cap",
          "type": "uint256"
        }
      ],
      "name": "createTender",
      "outputs": [
        {
          "name": "",
          "type": "address"
        }
      ],
      "payable": true,
      "stateMutability": "payable",
      "type": "function"
    },
    {
      "constant": true,
      "inputs": [
        {
          "name": "",
          "type": "address"
        }
      ],
      "name": "isTender",
      "outputs": [
        {
          "name": "",
          "type": "bool"
        }
      ],
      "payable": false,
      "stateMutability": "view",
      "type": "function"
    },
    {
      "inputs": [],
      "payable": false,
      "stateMutability": "nonpayable",
      "type": "constructor"
    },
    {
      "anonymous": false,
      "inputs": [
        {
          "indexed": true,
          "name": "sender",
          "type": "address"
        },
        {
          "indexed": true,
          "name": "instantiation",
          "type": "address"
        }
      ],
      "name": "ContractInstantiation",
      "type": "event"
    }
  ],
  "bytecode": "0x6060604052341561000f57600080fd5b6121338061001e6000396000f300606060405260043610610062576000357c0100000000000000000000000000000000000000000000000000000000900463ffffffff1680630ef98992146100675780635f8dead3146100f55780637e38585b14610177578063dfbc2d1f1461027a575b600080fd5b341561007257600080fd5b61009e600480803573ffffffffffffffffffffffffffffffffffffffff169060200190919050506102cb565b6040518080602001828103825283818151815260200191508051906020019060200280838360005b838110156100e15780820151818401526020810190506100c6565b505050509050019250505060405180910390f35b341561010057600080fd5b610135600480803573ffffffffffffffffffffffffffffffffffffffff1690602001909190803590602001909190505061039d565b604051808273ffffffffffffffffffffffffffffffffffffffff1673ffffffffffffffffffffffffffffffffffffffff16815260200191505060405180910390f35b610238600480803590602001908201803590602001908080601f0160208091040260200160405190810160405280939291908181526020018383808284378201915050505050509190803590602001909190803590602001909190803573ffffffffffffffffffffffffffffffffffffffff1690602001909190803573ffffffffffffffffffffffffffffffffffffffff1690602001909190803560ff1690602001909190803560ff169060200190919080359060200190919050506103eb565b604051808273ffffffffffffffffffffffffffffffffffffffff1673ffffffffffffffffffffffffffffffffffffffff16815260200191505060405180910390f35b341561028557600080fd5b6102b1600480803573ffffffffffffffffffffffffffffffffffffffff1690602001909190505061067a565b604051808215151515815260200191505060405180910390f35b6102d361069a565b6000808373ffffffffffffffffffffffffffffffffffffffff1673ffffffffffffffffffffffffffffffffffffffff16815260200190815260200160002080548060200260200160405190810160405280929190818152602001828054801561039157602002820191906000526020600020905b8160009054906101000a900473ffffffffffffffffffffffffffffffffffffffff1673ffffffffffffffffffffffffffffffffffffffff1681526020019060010190808311610347575b50505050509050919050565b6000602052816000526040600020818154811015156103b857fe5b90600052602060002090016000915091509054906101000a900473ffffffffffffffffffffffffffffffffffffffff1681565b60008089898989898989896103fe6106ae565b80806020018981526020018881526020018773ffffffffffffffffffffffffffffffffffffffff1673ffffffffffffffffffffffffffffffffffffffff1681526020018673ffffffffffffffffffffffffffffffffffffffff1673ffffffffffffffffffffffffffffffffffffffff1681526020018560ff1660ff1681526020018460ff1660ff16815260200183815260200182810382528a818151815260200191508051906020019080838360005b838110156104c95780820151818401526020810190506104ae565b50505050905090810190601f1680156104f65780820380516001836020036101000a031916815260200191505b509950505050505050505050604051809103906000f080151561051857600080fd5b90506000803373ffffffffffffffffffffffffffffffffffffffff1673ffffffffffffffffffffffffffffffffffffffff168152602001908152602001600020805480600101828161056a91906106be565b9160005260206000209001600083909190916101000a81548173ffffffffffffffffffffffffffffffffffffffff021916908373ffffffffffffffffffffffffffffffffffffffff160217905550508073ffffffffffffffffffffffffffffffffffffffff163373ffffffffffffffffffffffffffffffffffffffff167f4fb057ad4a26ed17a57957fa69c306f11987596069b89521c511fc9a894e616160405160405180910390a360018060008373ffffffffffffffffffffffffffffffffffffffff1673ffffffffffffffffffffffffffffffffffffffff16815260200190815260200160002060006101000a81548160ff0219169083151502179055508091505098975050505050505050565b60016020528060005260406000206000915054906101000a900460ff1681565b602060405190810160405280600081525090565b6040516119f88061071083390190565b8154818355818115116106e5578183600052602060002091820191016106e491906106ea565b5b505050565b61070c91905b808211156107085760008160009055506001016106f0565b5090565b905600606060405234156200001057600080fd5b604051620019f8380380620019f88339810160405280805182019190602001805190602001909190805190602001909190805190602001909190805190602001909190805190602001909190805190602001909190805190602001909190505087600390805190602001906200008892919062000267565b50866004819055508560058190555084600660006101000a81548173ffffffffffffffffffffffffffffffffffffffff021916908373ffffffffffffffffffffffffffffffffffffffff16021790555083600760006101000a81548173ffffffffffffffffffffffffffffffffffffffff021916908373ffffffffffffffffffffffffffffffffffffffff16021790555082600760146101000a81548160ff021916908360ff16021790555081600760156101000a81548160ff021916908360ff16021790555080600881905550336000806101000a81548173ffffffffffffffffffffffffffffffffffffffff021916908373ffffffffffffffffffffffffffffffffffffffff1602179055506000600260006101000a81548163ffffffff021916908363ffffffff1602179055506000600260046101000a81548163ffffffff021916908363ffffffff1602179055506000600260086101000a81548163ffffffff021916908363ffffffff1602179055506000600a60016101000a81548173ffffffffffffffffffffffffffffffffffffffff021916908373ffffffffffffffffffffffffffffffffffffffff1602179055506000600a60006101000a81548160ff021916908315150217905550505050505050505062000316565b828054600181600116156101000203166002900490600052602060002090601f016020900481019282601f10620002aa57805160ff1916838001178555620002db565b82800160010185558215620002db579182015b82811115620002da578251825591602001919060010190620002bd565b5b509050620002ea9190620002ee565b5090565b6200031391905b808211156200030f576000816000905550600101620002f5565b5090565b90565b6116d280620003266000396000f300606060405260043610610112576000357c0100000000000000000000000000000000000000000000000000000000900463ffffffff1680631136de4414610117578063291e6080146101465780632eb530ea146101d4578063391a57f91461024957806351819d64146102dd578063559a9f8d146103125780636599c8d2146103475780636a3c2f0114610376578063796bbbeb1461039f5780638da5cb5b146103cc578063907a404514610421578063a54f19ae146104a3578063a79dfde7146104cc578063aeebc5a5146104f5578063b1ae312c14610583578063d9b6f2a6146105d8578063e84db85714610666578063ea3d508a14610706578063fa2b06321461075b578063fce86d6c14610790575b600080fd5b341561012257600080fd5b61012a6107e5565b604051808260ff1660ff16815260200191505060405180910390f35b341561015157600080fd5b6101596107f8565b6040518080602001828103825283818151815260200191508051906020019080838360005b8381101561019957808201518184015260208101905061017e565b50505050905090810190601f1680156101c65780820380516001836020036101000a031916815260200191505b509250505060405180910390f35b34156101df57600080fd5b61022f600480803590602001908201803590602001908080601f01602080910402602001604051908101604052809392919081815260200183838082843782019150505050505091905050610896565b604051808215151515815260200191505060405180910390f35b341561025457600080fd5b6102c3600480803573ffffffffffffffffffffffffffffffffffffffff1690602001909190803590602001908201803590602001908080601f01602080910402602001604051908101604052809392919081815260200183838082843782019150505050505091905050610b11565b604051808215151515815260200191505060405180910390f35b34156102e857600080fd5b6102f0610d8a565b604051808263ffffffff1663ffffffff16815260200191505060405180910390f35b341561031d57600080fd5b610325610da0565b604051808263ffffffff1663ffffffff16815260200191505060405180910390f35b341561035257600080fd5b61035a610db6565b604051808260ff1660ff16815260200191505060405180910390f35b341561038157600080fd5b610389610dc9565b6040518082815260200191505060405180910390f35b34156103aa57600080fd5b6103b2610dcf565b604051808215151515815260200191505060405180910390f35b34156103d757600080fd5b6103df610de2565b604051808273ffffffffffffffffffffffffffffffffffffffff1673ffffffffffffffffffffffffffffffffffffffff16815260200191505060405180910390f35b341561042c57600080fd5b61048960048080356000191690602001909190803590602001908201803590602001908080601f01602080910402602001604051908101604052809392919081815260200183838082843782019150505050505091905050610e07565b604051808215151515815260200191505060405180910390f35b34156104ae57600080fd5b6104b661110a565b6040518082815260200191505060405180910390f35b34156104d757600080fd5b6104df611110565b6040518082815260200191505060405180910390f35b341561050057600080fd5b610508611116565b6040518080602001828103825283818151815260200191508051906020019080838360005b8381101561054857808201518184015260208101905061052d565b50505050905090810190601f1680156105755780820380516001836020036101000a031916815260200191505b509250505060405180910390f35b341561058e57600080fd5b6105966111b4565b604051808273ffffffffffffffffffffffffffffffffffffffff1673ffffffffffffffffffffffffffffffffffffffff16815260200191505060405180910390f35b34156105e357600080fd5b6105eb6111da565b6040518080602001828103825283818151815260200191508051906020019080838360005b8381101561062b578082015181840152602081019050610610565b50505050905090810190601f1680156106585780820380516001836020036101000a031916815260200191505b509250505060405180910390f35b341561067157600080fd5b6106ec600480803573ffffffffffffffffffffffffffffffffffffffff1690602001909190803590602001908201803590602001908080601f0160208091040260200160405190810160405280939291908181526020018383808284378201915050505050509190803560ff16906020019091905050611278565b604051808215151515815260200191505060405180910390f35b341561071157600080fd5b61071961159f565b604051808273ffffffffffffffffffffffffffffffffffffffff1673ffffffffffffffffffffffffffffffffffffffff16815260200191505060405180910390f35b341561076657600080fd5b61076e6115c5565b604051808263ffffffff1663ffffffff16815260200191505060405180910390f35b341561079b57600080fd5b6107a36115db565b604051808273ffffffffffffffffffffffffffffffffffffffff1673ffffffffffffffffffffffffffffffffffffffff16815260200191505060405180910390f35b600760149054906101000a900460ff1681565b60098054600181600116156101000203166002900480601f01602080910402602001604051908101604052809291908181526020018280546001816001161561010002031660029004801561088e5780601f106108635761010080835404028352916020019161088e565b820191906000526020600020905b81548152906001019060200180831161087157829003601f168201915b505050505081565b6000600454421115156108a857600080fd5b60055442111515156108b957600080fd5b6000600160003373ffffffffffffffffffffffffffffffffffffffff1673ffffffffffffffffffffffffffffffffffffffff16815260200190815260200160002060000160009054906101000a900473ffffffffffffffffffffffffffffffffffffffff1673ffffffffffffffffffffffffffffffffffffffff161415151561094157600080fd5b6000600160003373ffffffffffffffffffffffffffffffffffffffff1673ffffffffffffffffffffffffffffffffffffffff1681526020019081526020016000206003018054600181600116156101000203166002900490501415156109a657600080fd5b81600160003373ffffffffffffffffffffffffffffffffffffffff1673ffffffffffffffffffffffffffffffffffffffff16815260200190815260200160002060030190805190602001906109fc929190611601565b506002600481819054906101000a900463ffffffff168092919060010191906101000a81548163ffffffff021916908363ffffffff160217905550507ff88f70a94c83c868de9e77d33abbb15750a7a746c6d9d639f77f05a1943a2f493383604051808373ffffffffffffffffffffffffffffffffffffffff1673ffffffffffffffffffffffffffffffffffffffff16815260200180602001828103825283818151815260200191508051906020019080838360005b83811015610acd578082015181840152602081019050610ab2565b50505050905090810190601f168015610afa5780820380516001836020036101000a031916815260200191505b50935050505060405180910390a160019050919050565b600060055442111515610b2357600080fd5b600a60009054906101000a900460ff16151515610b3f57600080fd5b600760009054906101000a900473ffffffffffffffffffffffffffffffffffffffff1673ffffffffffffffffffffffffffffffffffffffff163373ffffffffffffffffffffffffffffffffffffffff16141515610b9b57600080fd5b600260089054906101000a900463ffffffff1663ffffffff16600260049054906101000a900463ffffffff1663ffffffff16141515610bd957600080fd5b600260ff16600160008573ffffffffffffffffffffffffffffffffffffffff1673ffffffffffffffffffffffffffffffffffffffff16815260200190815260200160002060040160009054906101000a900460ff1660ff16141515610c3d57600080fd5b82600a60016101000a81548173ffffffffffffffffffffffffffffffffffffffff021916908373ffffffffffffffffffffffffffffffffffffffff1602179055506001600a60006101000a81548160ff02191690831515021790555081600b9080519060200190610caf929190611601565b507fc54ebfcedfe4a5c568f5e2d28f778db0e4ad61c6b8adbc786d7db9096a002c398383604051808373ffffffffffffffffffffffffffffffffffffffff1673ffffffffffffffffffffffffffffffffffffffff16815260200180602001828103825283818151815260200191508051906020019080838360005b83811015610d45578082015181840152602081019050610d2a565b50505050905090810190601f168015610d725780820380516001836020036101000a031916815260200191505b50935050505060405180910390a16001905092915050565b600260049054906101000a900463ffffffff1681565b600260009054906101000a900463ffffffff1681565b600760159054906101000a900460ff1681565b60085481565b600a60009054906101000a900460ff1681565b6000809054906101000a900473ffffffffffffffffffffffffffffffffffffffff1681565b60006004544211151515610e1a57600080fd5b6000600160003373ffffffffffffffffffffffffffffffffffffffff1673ffffffffffffffffffffffffffffffffffffffff16815260200190815260200160002060000160009054906101000a900473ffffffffffffffffffffffffffffffffffffffff1673ffffffffffffffffffffffffffffffffffffffff16141515610ea157600080fd5b82600160003373ffffffffffffffffffffffffffffffffffffffff1673ffffffffffffffffffffffffffffffffffffffff168152602001908152602001600020600101816000191690555081600160003373ffffffffffffffffffffffffffffffffffffffff1673ffffffffffffffffffffffffffffffffffffffff1681526020019081526020016000206002019080519060200190610f42929190611601565b5033600160003373ffffffffffffffffffffffffffffffffffffffff1673ffffffffffffffffffffffffffffffffffffffff16815260200190815260200160002060000160006101000a81548173ffffffffffffffffffffffffffffffffffffffff021916908373ffffffffffffffffffffffffffffffffffffffff1602179055506002600081819054906101000a900463ffffffff168092919060010191906101000a81548163ffffffff021916908363ffffffff160217905550507f9bbef76d56de2b53241d0250bd9b955e1108ad80d0fcaa6c7277cf0e9bb832336000809054906101000a900473ffffffffffffffffffffffffffffffffffffffff168484604051808473ffffffffffffffffffffffffffffffffffffffff1673ffffffffffffffffffffffffffffffffffffffff168152602001836000191660001916815260200180602001828103825283818151815260200191508051906020019080838360005b838110156110c45780820151818401526020810190506110a9565b50505050905090810190601f1680156110f15780820380516001836020036101000a031916815260200191505b5094505050505060405180910390a16001905092915050565b60055481565b60045481565b600b8054600181600116156101000203166002900480601f0160208091040260200160405190810160405280929190818152602001828054600181600116156101000203166002900480156111ac5780601f10611181576101008083540402835291602001916111ac565b820191906000526020600020905b81548152906001019060200180831161118f57829003601f168201915b505050505081565b600660009054906101000a900473ffffffffffffffffffffffffffffffffffffffff1681565b60038054600181600116156101000203166002900480601f0160208091040260200160405190810160405280929190818152602001828054600181600116156101000203166002900480156112705780601f1061124557610100808354040283529160200191611270565b820191906000526020600020905b81548152906001019060200180831161125357829003601f168201915b505050505081565b60006004544211151561128a57600080fd5b600660009054906101000a900473ffffffffffffffffffffffffffffffffffffffff1673ffffffffffffffffffffffffffffffffffffffff163373ffffffffffffffffffffffffffffffffffffffff161415156112e657600080fd5b6000600102600160008673ffffffffffffffffffffffffffffffffffffffff1673ffffffffffffffffffffffffffffffffffffffff16815260200190815260200160002060010154600019161415151561133f57600080fd5b600060ff16600160008673ffffffffffffffffffffffffffffffffffffffff1673ffffffffffffffffffffffffffffffffffffffff16815260200190815260200160002060040160009054906101000a900460ff1660ff161415156113a357600080fd5b600160ff168260ff1614806113be5750600260ff168260ff16145b15156113c957600080fd5b81600160008673ffffffffffffffffffffffffffffffffffffffff1673ffffffffffffffffffffffffffffffffffffffff16815260200190815260200160002060040160006101000a81548160ff021916908360ff16021790555082600160008673ffffffffffffffffffffffffffffffffffffffff1673ffffffffffffffffffffffffffffffffffffffff168152602001908152602001600020600501908051906020019061147a929190611601565b506002600881819054906101000a900463ffffffff168092919060010191906101000a81548163ffffffff021916908363ffffffff160217905550507fe07415383a76b404d3715f0885d68d54a8fb9c9d13a3db2bc8fde815ece31315848484604051808473ffffffffffffffffffffffffffffffffffffffff1673ffffffffffffffffffffffffffffffffffffffff168152602001806020018360ff1660ff168152602001828103825284818151815260200191508051906020019080838360005b8381101561155857808201518184015260208101905061153d565b50505050905090810190601f1680156115855780820380516001836020036101000a031916815260200191505b5094505050505060405180910390a1600190509392505050565b600760009054906101000a900473ffffffffffffffffffffffffffffffffffffffff1681565b600260089054906101000a900463ffffffff1681565b600a60019054906101000a900473ffffffffffffffffffffffffffffffffffffffff1681565b828054600181600116156101000203166002900490600052602060002090601f016020900481019282601f1061164257805160ff1916838001178555611670565b82800160010185558215611670579182015b8281111561166f578251825591602001919060010190611654565b5b50905061167d9190611681565b5090565b6116a391905b8082111561169f576000816000905550600101611687565b5090565b905600a165627a7a72305820af1cdecb2b46071e953f29db784e322b95c5d851456208d745128303054d60a10029a165627a7a723058205dfa34a998f6e77c505bbaeba69bb8333767c9c0bfd8efacae8d08ac614b25580029",
  "source": "pragma solidity ^0.4.18;\n\nimport './Tender.sol';\n\ncontract TenderFactory {\n\n    mapping(address => address[]) public created;\n    mapping(address => bool) public isTender;\n\n    event ContractInstantiation(address indexed sender, address indexed instantiation);\n\n    function TenderFactory() public  {\n        // constructor\n    }\n\n    function createTender(\n        string  _tender_desc,\n        uint256 _submissions_due,\n        uint256 _sealing_due,\n        address _unsealer,\n        address _selector,\n        uint8   _tender_type,\n        uint8   _tender_scope,\n        uint    _fund_cap\n    ) public payable returns (address) {\n        Tender newContract = new Tender(\n            _tender_desc,\n            _submissions_due,\n            _sealing_due,\n            _unsealer,\n            _selector,\n            _tender_type,\n            _tender_scope,\n            _fund_cap\n        );\n        created[msg.sender].push(address(newContract));\n        ContractInstantiation(msg.sender, address(newContract));\n        /* newContract.transferOwnership(msg.sender); */\n        isTender[address(newContract)] = true;\n        return address(newContract);\n    }\n\n    function getCreated(address _address) view public returns (address[]) {\n        return created[_address];\n    }\n}\n",
  "sourcePath": "/Users/alex/Hackathons/cytasmartcity18/0xgg/smartcontract/contracts/TenderFactory.sol",
  "compiler": {
    "name": "solc",
    "version": "0.4.18+commit.9cf6e910.Emscripten.clang"
  },
  "schemaVersion": "1.0.1",
  "updatedAt": "2018-02-24T18:26:20.700Z"
}